:0800000013C0FECFFDCF69C063
:1000080046C0FACF76C083C0F7CFF6CFF5CFF4CF8E
:10001800F3CFF2CFF1CFF0CFEFCFEECFEDCF00009F
:10002800F894EE27ECBBF1E0FBBFEBBFE5BFF8E1CE
:10003800F1BDE1BD8DE0A2E0BB27ED938A95E9F71C
:1000480080E094E0A0E6ED930197E9F7E6E2F0E0BE
:1000580085919591009761F0A591B59105901590BE
:10006800BF01F00105900D920197E1F7FB01F0CF78
:10007800EFE5EDBFE4E0EEBFC0E6D1E05AC0909AEC
:10008800919A929A939A949A959AC69A0895B0D00A
:10009800B19903C09498C6981BC0B29905C09098AE
:1000A8009198B4D0C69814C0B39904C09298909807
:1000B800ADD00EC0B49904C09298A8D0C69808C014
:1000C800B59905C0919892989498C69801C0D7DFC1
:1000D80002C08ED0D4DFE991EFBFF991E991B991CF
:1000E800A9919991899179916991F99019900990BB
:1000F800189590D029F4AB9A9798E1E05E2E06C047
:10010800E1E0E51519F4AB98979A55240DC082D013
:1001180029F4AA9A9698E1E05E2E06C0E1E0E5157A
:1001280019F4AA98969A5524E991EFBFF991E991A3
:100138001895EEEFE8BBE0ECE7BBE3E1E5BBECE0EC
:10014800E4BBEFE3E2BBEFEFE1BBE0E0E3BFE2BF1C
:10015800EFBDE5E0EEBDE0E0EDBDECBDE7BDE6BD21
:10016800EFE0EBBDE2E4EABDEFE0E9BDE2E4E8BDC3
:10017800E0E0E2BDE6E0E5BDE0E0E4BDE0E7E3BDE8
:10018800E0E0E5BFE0E4E9BFE0E8E8B9E0E0E0BFCF
:100198007894B09B02C0E0EC01C0E0E4E9BF989914
:1001A80007C0B09B02C0E0ED01C0E0E5E9BF14C0A4
:1001B800999907C0B09B02C0E8EC01C0E8E4E9BF28
:1001C8000BC0B09B02C0E0EC01C0E0E4E9BFAA9814
:1001D800AB98969897985524E2E3F0E0FA93EA935F
:1001E80023D09C9902C0C79801C0C79AD2CFFFCF2D
:1001F8000A921A92FA926A937A938A939A93AA9392
:10020800BA93EA93FA93EFB7EA9308959398949878
:1002180095980895EA93FA93EFB7EA93E0E0F0E04F
:10022800FDBDECBD55200895E991F991309639F05E
:1002380080ED97E00197F1F7A8953197C9F70895F0
:00000001FF
